{
  "address": "0x8AA02ab2eec5F7eBf310dEc80ADD4D481538a852",
  "abi": [
    {
      "inputs": [],
      "stateMutability": "nonpayable",
      "type": "constructor"
    },
    {
      "anonymous": false,
      "inputs": [
        {
          "indexed": false,
          "internalType": "address",
          "name": "tokenRecovered",
          "type": "address"
        },
        {
          "indexed": false,
          "internalType": "uint256",
          "name": "amount",
          "type": "uint256"
        }
      ],
      "name": "AdminTokenRecovery",
      "type": "event"
    },
    {
      "anonymous": false,
      "inputs": [
        {
          "indexed": true,
          "internalType": "address",
          "name": "user",
          "type": "address"
        },
        {
          "indexed": false,
          "internalType": "uint256",
          "name": "amount",
          "type": "uint256"
        }
      ],
      "name": "Deposit",
      "type": "event"
    },
    {
      "anonymous": false,
      "inputs": [
        {
          "indexed": true,
          "internalType": "address",
          "name": "user",
          "type": "address"
        },
        {
          "indexed": false,
          "internalType": "uint256",
          "name": "amount",
          "type": "uint256"
        }
      ],
      "name": "EmergencyWithdraw",
      "type": "event"
    },
    {
      "anonymous": false,
      "inputs": [
        {
          "indexed": false,
          "internalType": "uint256",
          "name": "poolLimitPerUser",
          "type": "uint256"
        }
      ],
      "name": "NewPoolLimit",
      "type": "event"
    },
    {
      "anonymous": false,
      "inputs": [
        {
          "indexed": false,
          "internalType": "uint256",
          "name": "rewardPerBlock",
          "type": "uint256"
        }
      ],
      "name": "NewRewardPerBlock",
      "type": "event"
    },
    {
      "anonymous": false,
      "inputs": [
        {
          "indexed": false,
          "internalType": "uint256",
          "name": "startBlock",
          "type": "uint256"
        },
        {
          "indexed": false,
          "internalType": "uint256",
          "name": "endBlock",
          "type": "uint256"
        }
      ],
      "name": "NewStartAndEndBlocks",
      "type": "event"
    },
    {
      "anonymous": false,
      "inputs": [
        {
          "indexed": true,
          "internalType": "address",
          "name": "previousOwner",
          "type": "address"
        },
        {
          "indexed": true,
          "internalType": "address",
          "name": "newOwner",
          "type": "address"
        }
      ],
      "name": "OwnershipTransferred",
      "type": "event"
    },
    {
      "anonymous": false,
      "inputs": [
        {
          "indexed": false,
          "internalType": "uint256",
          "name": "blockNumber",
          "type": "uint256"
        }
      ],
      "name": "RewardsStop",
      "type": "event"
    },
    {
      "anonymous": false,
      "inputs": [
        {
          "indexed": true,
          "internalType": "address",
          "name": "user",
          "type": "address"
        },
        {
          "indexed": false,
          "internalType": "uint256",
          "name": "amount",
          "type": "uint256"
        }
      ],
      "name": "Withdraw",
      "type": "event"
    },
    {
      "inputs": [],
      "name": "POOL_FACTORY",
      "outputs": [
        {
          "internalType": "address",
          "name": "",
          "type": "address"
        }
      ],
      "stateMutability": "view",
      "type": "function"
    },
    {
      "inputs": [],
      "name": "PRECISION_FACTOR",
      "outputs": [
        {
          "internalType": "uint256",
          "name": "",
          "type": "uint256"
        }
      ],
      "stateMutability": "view",
      "type": "function"
    },
    {
      "inputs": [],
      "name": "bonusEndBlock",
      "outputs": [
        {
          "internalType": "uint256",
          "name": "",
          "type": "uint256"
        }
      ],
      "stateMutability": "view",
      "type": "function"
    },
    {
      "inputs": [
        {
          "internalType": "uint256",
          "name": "_amount",
          "type": "uint256"
        }
      ],
      "name": "deposit",
      "outputs": [],
      "stateMutability": "nonpayable",
      "type": "function"
    },
    {
      "inputs": [
        {
          "internalType": "uint256",
          "name": "_amount",
          "type": "uint256"
        }
      ],
      "name": "emergencyRewardWithdraw",
      "outputs": [],
      "stateMutability": "nonpayable",
      "type": "function"
    },
    {
      "inputs": [],
      "name": "emergencyWithdraw",
      "outputs": [],
      "stateMutability": "nonpayable",
      "type": "function"
    },
    {
      "inputs": [],
      "name": "hasUserLimit",
      "outputs": [
        {
          "internalType": "bool",
          "name": "",
          "type": "bool"
        }
      ],
      "stateMutability": "view",
      "type": "function"
    },
    {
      "inputs": [
        {
          "internalType": "contract IBEP20",
          "name": "_stakedToken",
          "type": "address"
        },
        {
          "internalType": "contract IBEP20",
          "name": "_rewardToken",
          "type": "address"
        },
        {
          "internalType": "address",
          "name": "_rewardFrom",
          "type": "address"
        },
        {
          "internalType": "uint256",
          "name": "_rewardPerBlock",
          "type": "uint256"
        },
        {
          "internalType": "uint256",
          "name": "_startBlock",
          "type": "uint256"
        },
        {
          "internalType": "uint256",
          "name": "_bonusEndBlock",
          "type": "uint256"
        },
        {
          "internalType": "uint256",
          "name": "_poolLimitPerUser",
          "type": "uint256"
        },
        {
          "internalType": "address",
          "name": "_admin",
          "type": "address"
        }
      ],
      "name": "initialize",
      "outputs": [],
      "stateMutability": "nonpayable",
      "type": "function"
    },
    {
      "inputs": [],
      "name": "isInitialized",
      "outputs": [
        {
          "internalType": "bool",
          "name": "",
          "type": "bool"
        }
      ],
      "stateMutability": "view",
      "type": "function"
    },
    {
      "inputs": [],
      "name": "owner",
      "outputs": [
        {
          "internalType": "address",
          "name": "",
          "type": "address"
        }
      ],
      "stateMutability": "view",
      "type": "function"
    },
    {
      "inputs": [
        {
          "internalType": "address",
          "name": "_user",
          "type": "address"
        }
      ],
      "name": "pendingReward",
      "outputs": [
        {
          "internalType": "uint256",
          "name": "",
          "type": "uint256"
        }
      ],
      "stateMutability": "view",
      "type": "function"
    },
    {
      "inputs": [],
      "name": "poolLimitPerUser",
      "outputs": [
        {
          "internalType": "uint256",
          "name": "",
          "type": "uint256"
        }
      ],
      "stateMutability": "view",
      "type": "function"
    },
    {
      "inputs": [
        {
          "internalType": "address",
          "name": "_tokenAddress",
          "type": "address"
        },
        {
          "internalType": "uint256",
          "name": "_tokenAmount",
          "type": "uint256"
        }
      ],
      "name": "recoverWrongTokens",
      "outputs": [],
      "stateMutability": "nonpayable",
      "type": "function"
    },
    {
      "inputs": [],
      "name": "renounceOwnership",
      "outputs": [],
      "stateMutability": "nonpayable",
      "type": "function"
    },
    {
      "inputs": [],
      "name": "rewardFrom",
      "outputs": [
        {
          "internalType": "address",
          "name": "",
          "type": "address"
        }
      ],
      "stateMutability": "view",
      "type": "function"
    },
    {
      "inputs": [],
      "name": "rewardPerBlock",
      "outputs": [
        {
          "internalType": "uint256",
          "name": "",
          "type": "uint256"
        }
      ],
      "stateMutability": "view",
      "type": "function"
    },
    {
      "inputs": [],
      "name": "rewardToken",
      "outputs": [
        {
          "internalType": "contract IBEP20",
          "name": "",
          "type": "address"
        }
      ],
      "stateMutability": "view",
      "type": "function"
    },
    {
      "inputs": [],
      "name": "stakedToken",
      "outputs": [
        {
          "internalType": "contract IBEP20",
          "name": "",
          "type": "address"
        }
      ],
      "stateMutability": "view",
      "type": "function"
    },
    {
      "inputs": [],
      "name": "startBlock",
      "outputs": [
        {
          "internalType": "uint256",
          "name": "",
          "type": "uint256"
        }
      ],
      "stateMutability": "view",
      "type": "function"
    },
    {
      "inputs": [],
      "name": "stopReward",
      "outputs": [],
      "stateMutability": "nonpayable",
      "type": "function"
    },
    {
      "inputs": [
        {
          "internalType": "address",
          "name": "newOwner",
          "type": "address"
        }
      ],
      "name": "transferOwnership",
      "outputs": [],
      "stateMutability": "nonpayable",
      "type": "function"
    },
    {
      "inputs": [
        {
          "internalType": "bool",
          "name": "_hasUserLimit",
          "type": "bool"
        },
        {
          "internalType": "uint256",
          "name": "_poolLimitPerUser",
          "type": "uint256"
        }
      ],
      "name": "updatePoolLimitPerUser",
      "outputs": [],
      "stateMutability": "nonpayable",
      "type": "function"
    },
    {
      "inputs": [
        {
          "internalType": "uint256",
          "name": "_rewardPerBlock",
          "type": "uint256"
        }
      ],
      "name": "updateRewardPerBlock",
      "outputs": [],
      "stateMutability": "nonpayable",
      "type": "function"
    },
    {
      "inputs": [
        {
          "internalType": "uint256",
          "name": "_startBlock",
          "type": "uint256"
        },
        {
          "internalType": "uint256",
          "name": "_bonusEndBlock",
          "type": "uint256"
        }
      ],
      "name": "updateStartAndEndBlocks",
      "outputs": [],
      "stateMutability": "nonpayable",
      "type": "function"
    },
    {
      "inputs": [
        {
          "internalType": "address",
          "name": "",
          "type": "address"
        }
      ],
      "name": "userInfo",
      "outputs": [
        {
          "internalType": "uint256",
          "name": "amount",
          "type": "uint256"
        },
        {
          "internalType": "uint256",
          "name": "lastRewardBlock",
          "type": "uint256"
        }
      ],
      "stateMutability": "view",
      "type": "function"
    },
    {
      "inputs": [
        {
          "internalType": "uint256",
          "name": "_amount",
          "type": "uint256"
        }
      ],
      "name": "withdraw",
      "outputs": [],
      "stateMutability": "nonpayable",
      "type": "function"
    }
  ],
  "transactionHash": "0x0364568204cda54f65d4293115ab7e1dd7d998d04f4baf8f20423794a7788faf",
  "args": [],
  "solcInputHash": "8a31c1c049fbb0a0ae812f4bc9b53514",
  "bytecode": "0x608060405234801561001057600080fd5b50600061001b610080565b600080546001600160a01b0319166001600160a01b0383169081178255604051929350917f8be0079c531659141344cd1fd0a4f28419497f9722a3daafe3b4186f6b6457e0908290a35060018055600280546001600160a01b03191633179055610084565b3390565b611977806100936000396000f3fe608060405234801561001057600080fd5b506004361061018e5760003560e01c80638da5cb5b116100de578063cc7a262e11610097578063db2e21bc11610071578063db2e21bc146103bd578063f2fde38b146103c5578063f40f0f52146103eb578063f7c618c1146104115761018e565b8063cc7a262e146103a5578063ccd34cd5146103ad578063d8e31608146103b55761018e565b80638da5cb5b1461030c5780638fb0b31f1461033057806392e8990e146103385780639513997f14610340578063a0b4090514610363578063b6b55f25146103885761018e565b8063392e53cd1161014b57806366fe9f8a1161012557806366fe9f8a146102ec578063715018a6146102f457806380dc0672146102fc5780638ae39cac146103045761018e565b8063392e53cd1461029c5780633f138d4b146102b857806348cd4cb1146102e45761018e565b806301f8a976146101935780631959a002146101b25780631aed6553146101f15780632bf033ad1461020b5780632e1a7d4d146102625780633279beab1461027f575b600080fd5b6101b0600480360360208110156101a957600080fd5b5035610419565b005b6101d8600480360360208110156101c857600080fd5b50356001600160a01b03166104ff565b6040805192835260208301919091528051918290030190f35b6101f9610518565b60408051918252519081900360200190f35b6101b0600480360361010081101561022257600080fd5b506001600160a01b0381358116916020810135821691604082013581169160608101359160808201359160a08101359160c08201359160e001351661051e565b6101b06004803603602081101561027857600080fd5b50356106d0565b6101b06004803603602081101561029557600080fd5b503561086c565b6102a46108ef565b604080519115158252519081900360200190f35b6101b0600480360360408110156102ce57600080fd5b506001600160a01b0381351690602001356108ff565b6101f9610a75565b6101f9610a7b565b6101b0610a81565b6101b0610b2d565b6101f9610b95565b610314610b9b565b604080516001600160a01b039092168252519081900360200190f35b610314610baa565b6102a4610bb9565b6101b06004803603604081101561035657600080fd5b5080359060200135610bc9565b6101b06004803603604081101561037957600080fd5b50803515159060200135610d39565b6101b06004803603602081101561039e57600080fd5b5035610ea3565b610314611073565b6101f9611082565b610314611088565b6101b0611097565b6101b0600480360360208110156103db57600080fd5b50356001600160a01b031661116e565b6101f96004803603602081101561040157600080fd5b50356001600160a01b0316611270565b6103146112c6565b6104216112d5565b6001600160a01b0316610432610b9b565b6001600160a01b03161461047b576040805162461bcd60e51b8152602060048201819052602482015260008051602061194b833981519152604482015290519081900360640190fd5b60045443106104c4576040805162461bcd60e51b815260206004820152601060248201526f141bdbdb081a185cc81cdd185c9d195960821b604482015290519081900360640190fd5b60068190556040805182815290517f0c4d677eef92893ac7ec52faf8140fc6c851ab4736302b4f3a89dfb20696a0df9181900360200190a150565b600b602052600090815260409020805460019091015482565b60035481565b600254600160a81b900460ff1615610573576040805162461bcd60e51b8152602060048201526013602482015272105b1c9958591e481a5b9a5d1a585b1a5e9959606a1b604482015290519081900360640190fd5b6002546001600160a01b031633146105c0576040805162461bcd60e51b815260206004820152600b60248201526a4e6f7420666163746f727960a81b604482015290519081900360640190fd5b6002805460ff60a81b1916600160a81b179055600980546001600160a01b03808b166001600160a01b031992831617909255600880548a8416908316179055600a805492891692909116919091179055600685905560048490556003839055811561063e576002805460ff60a01b1916600160a01b17905560058290555b6008546040805163313ce56760e01b815290516000926001600160a01b03169163313ce567916004808301926020929190829003018186803b15801561068357600080fd5b505afa158015610697573d6000803e3d6000fd5b505050506040513d60208110156106ad57600080fd5b505160ff16600a81900a60075590506106c58261116e565b505050505050505050565b60026001541415610728576040805162461bcd60e51b815260206004820152601f60248201527f5265656e7472616e637947756172643a207265656e7472616e742063616c6c00604482015290519081900360640190fd5b6002600155336000908152600b602052604090208054821115610792576040805162461bcd60e51b815260206004820152601b60248201527f416d6f756e7420746f20776974686472617720746f6f20686967680000000000604482015290519081900360640190fd5b60006107a28260010154436112d9565b905060006107d56007546107cf846107c9600654886000015461132990919063ffffffff16565b90611329565b90611389565b905083156108025782546107e990856113cb565b8355600954610802906001600160a01b0316338661140d565b801561082657600a54600854610826916001600160a01b0391821691163384611464565b43600184015560408051858152905133917f884edad9ce6fa2440d8a54cc123490eb96d2768479d49ff9c7366125a9424364919081900360200190a25050600180555050565b6108746112d5565b6001600160a01b0316610885610b9b565b6001600160a01b0316146108ce576040805162461bcd60e51b8152602060048201819052602482015260008051602061194b833981519152604482015290519081900360640190fd5b600a546008546108ec916001600160a01b0391821691163384611464565b50565b600254600160a81b900460ff1681565b6109076112d5565b6001600160a01b0316610918610b9b565b6001600160a01b031614610961576040805162461bcd60e51b8152602060048201819052602482015260008051602061194b833981519152604482015290519081900360640190fd5b6009546001600160a01b03838116911614156109bd576040805162461bcd60e51b815260206004820152601660248201527521b0b73737ba1031329039ba30b5b2b2103a37b5b2b760511b604482015290519081900360640190fd5b6008546001600160a01b0383811691161415610a19576040805162461bcd60e51b815260206004820152601660248201527521b0b73737ba103132903932bbb0b932103a37b5b2b760511b604482015290519081900360640190fd5b610a2d6001600160a01b038316338361140d565b604080516001600160a01b03841681526020810183905281517f74545154aac348a3eac92596bd1971957ca94795f4e954ec5f613b55fab78129929181900390910190a15050565b60045481565b60055481565b610a896112d5565b6001600160a01b0316610a9a610b9b565b6001600160a01b031614610ae3576040805162461bcd60e51b8152602060048201819052602482015260008051602061194b833981519152604482015290519081900360640190fd5b600080546040516001600160a01b03909116907f8be0079c531659141344cd1fd0a4f28419497f9722a3daafe3b4186f6b6457e0908390a3600080546001600160a01b0319169055565b610b356112d5565b6001600160a01b0316610b46610b9b565b6001600160a01b031614610b8f576040805162461bcd60e51b8152602060048201819052602482015260008051602061194b833981519152604482015290519081900360640190fd5b43600355565b60065481565b6000546001600160a01b031690565b600a546001600160a01b031681565b600254600160a01b900460ff1681565b610bd16112d5565b6001600160a01b0316610be2610b9b565b6001600160a01b031614610c2b576040805162461bcd60e51b8152602060048201819052602482015260008051602061194b833981519152604482015290519081900360640190fd5b6004544310610c74576040805162461bcd60e51b815260206004820152601060248201526f141bdbdb081a185cc81cdd185c9d195960821b604482015290519081900360640190fd5b808210610cb25760405162461bcd60e51b815260040180806020018281038252602e8152602001806118cc602e913960400191505060405180910390fd5b814310610cf05760405162461bcd60e51b81526004018080602001828103825260308152602001806118fa6030913960400191505060405180910390fd5b60048290556003819055604080518381526020810183905281517f7cd0ab87d19036f3dfadadb232c78aa4879dda3f0c994a9d637532410ee2ce06929181900390910190a15050565b610d416112d5565b6001600160a01b0316610d52610b9b565b6001600160a01b031614610d9b576040805162461bcd60e51b8152602060048201819052602482015260008051602061194b833981519152604482015290519081900360640190fd5b600254600160a01b900460ff16610de7576040805162461bcd60e51b815260206004820152600b60248201526a135d5cdd081899481cd95d60aa1b604482015290519081900360640190fd5b8115610e4d576005548111610e43576040805162461bcd60e51b815260206004820152601860248201527f4e6577206c696d6974206d757374206265206869676865720000000000000000604482015290519081900360640190fd5b6005819055610e6a565b6002805460ff60a01b1916600160a01b8415150217905560006005555b60055460408051918252517f241f67ee5f41b7a5cabf911367329be7215900f602ebfc47f89dce2a6bcd847c9181900360200190a15050565b60026001541415610efb576040805162461bcd60e51b815260206004820152601f60248201527f5265656e7472616e637947756172643a207265656e7472616e742063616c6c00604482015290519081900360640190fd5b6002600155600a546001600160a01b0316331415610f1857600080fd5b336000908152600b60205260409020600254600160a01b900460ff1615610f9c576005548154610f499084906114c4565b1115610f9c576040805162461bcd60e51b815260206004820152601760248201527f5573657220616d6f756e742061626f7665206c696d6974000000000000000000604482015290519081900360640190fd5b805415611003576000610fb38260010154436112d9565b90506000610fda6007546107cf846107c9600654886000015461132990919063ffffffff16565b9050801561100057600a54600854611000916001600160a01b0391821691163384611464565b50505b811561102f57805461101590836114c4565b815560095461102f906001600160a01b0316333085611464565b43600182015560408051838152905133917fe1fffcc4923d04b559f4d29a8bfc6cda04eb5b0d3c460751c2402c5c5cc9109c919081900360200190a2505060018055565b6009546001600160a01b031681565b60075481565b6002546001600160a01b031681565b600260015414156110ef576040805162461bcd60e51b815260206004820152601f60248201527f5265656e7472616e637947756172643a207265656e7472616e742063616c6c00604482015290519081900360640190fd5b60026001908155336000908152600b6020526040812080548282559281019190915590801561112f5760095461112f906001600160a01b0316338361140d565b8154604080519182525133917f5fafa99d0643513820be26656b45130b01e1c03062e1266bf36f88cbd3bd9695919081900360200190a2505060018055565b6111766112d5565b6001600160a01b0316611187610b9b565b6001600160a01b0316146111d0576040805162461bcd60e51b8152602060048201819052602482015260008051602061194b833981519152604482015290519081900360640190fd5b6001600160a01b0381166112155760405162461bcd60e51b81526004018080602001828103825260268152602001806118a66026913960400191505060405180910390fd5b600080546040516001600160a01b03808516939216917f8be0079c531659141344cd1fd0a4f28419497f9722a3daafe3b4186f6b6457e091a3600080546001600160a01b0319166001600160a01b0392909216919091179055565b6001600160a01b0381166000908152600b602052604081206001810154829061129990436112d9565b90506112be6007546107cf836107c9600654876000015461132990919063ffffffff16565b949350505050565b6008546001600160a01b031681565b3390565b60006004548310156112eb5760045492505b6003548211611305576112fe82846113cb565b9050611323565b600354831061131657506000611323565b6003546112fe90846113cb565b92915050565b60008261133857506000611323565b8282028284828161134557fe5b04146113825760405162461bcd60e51b815260040180806020018281038252602181526020018061192a6021913960400191505060405180910390fd5b9392505050565b600061138283836040518060400160405280601a81526020017f536166654d6174683a206469766973696f6e206279207a65726f00000000000081525061151e565b600061138283836040518060400160405280601e81526020017f536166654d6174683a207375627472616374696f6e206f766572666c6f7700008152506115c0565b604080516001600160a01b038416602482015260448082018490528251808303909101815260649091019091526020810180516001600160e01b031663a9059cbb60e01b17905261145f90849061161a565b505050565b604080516001600160a01b0380861660248301528416604482015260648082018490528251808303909101815260849091019091526020810180516001600160e01b03166323b872dd60e01b1790526114be90859061161a565b50505050565b600082820183811015611382576040805162461bcd60e51b815260206004820152601b60248201527f536166654d6174683a206164646974696f6e206f766572666c6f770000000000604482015290519081900360640190fd5b600081836115aa5760405162461bcd60e51b81526004018080602001828103825283818151815260200191508051906020019080838360005b8381101561156f578181015183820152602001611557565b50505050905090810190601f16801561159c5780820380516001836020036101000a031916815260200191505b509250505060405180910390fd5b5060008385816115b657fe5b0495945050505050565b600081848411156116125760405162461bcd60e51b815260206004820181815283516024840152835190928392604490910191908501908083836000831561156f578181015183820152602001611557565b505050900390565b606061166f826040518060400160405280602081526020017f5361666542455032303a206c6f772d6c6576656c2063616c6c206661696c6564815250856001600160a01b03166116cb9092919063ffffffff16565b80519091501561145f5780806020019051602081101561168e57600080fd5b505161145f5760405162461bcd60e51b815260040180806020018281038252602a81526020018061187c602a913960400191505060405180910390fd5b60606112be848460008560606116e085611842565b611731576040805162461bcd60e51b815260206004820152601d60248201527f416464726573733a2063616c6c20746f206e6f6e2d636f6e7472616374000000604482015290519081900360640190fd5b60006060866001600160a01b031685876040518082805190602001908083835b602083106117705780518252601f199092019160209182019101611751565b6001836020036101000a03801982511681845116808217855250505050505090500191505060006040518083038185875af1925050503d80600081146117d2576040519150601f19603f3d011682016040523d82523d6000602084013e6117d7565b606091505b509150915081156117eb5791506112be9050565b8051156117fb5780518082602001fd5b60405162461bcd60e51b815260206004820181815286516024840152865187939192839260440191908501908083836000831561156f578181015183820152602001611557565b6000813f7fc5d2460186f7233c927e7db2dcc703c0e500b653ca82273b7bfad8045d85a4708181148015906112be57505015159291505056fe5361666542455032303a204245503230206f7065726174696f6e20646964206e6f7420737563636565644f776e61626c653a206e6577206f776e657220697320746865207a65726f20616464726573734e6577207374617274426c6f636b206d757374206265206c6f776572207468616e206e657720656e64426c6f636b4e6577207374617274426c6f636b206d75737420626520686967686572207468616e2063757272656e7420626c6f636b536166654d6174683a206d756c7469706c69636174696f6e206f766572666c6f774f776e61626c653a2063616c6c6572206973206e6f7420746865206f776e6572a164736f6c634300060c000a",
  "devdoc": {
    "kind": "dev",
    "methods": {
      "owner()": {
        "details": "Returns the address of the current owner."
      },
      "recoverWrongTokens(address,uint256)": {
        "details": "This function is only callable by admin.",
        "params": {
          "_tokenAddress": ": the address of the token to withdraw",
          "_tokenAmount": ": the number of tokens to withdraw"
        }
      },
      "renounceOwnership()": {
        "details": "Leaves the contract without owner. It will not be possible to call `onlyOwner` functions anymore. Can only be called by the current owner. NOTE: Renouncing ownership will leave the contract without an owner, thereby removing any functionality that is only available to the owner."
      },
      "transferOwnership(address)": {
        "details": "Transfers ownership of the contract to a new account (`newOwner`). Can only be called by the current owner."
      },
      "updateStartAndEndBlocks(uint256,uint256)": {
        "details": "This function is only callable by owner.",
        "params": {
          "_bonusEndBlock": ": the new end block",
          "_startBlock": ": the new start block"
        }
      }
    },
    "version": 1
  },
  "userdoc": {
    "kind": "user",
    "methods": {
      "recoverWrongTokens(address,uint256)": {
        "notice": "It allows the admin to recover wrong tokens sent to the contract"
      },
      "updateStartAndEndBlocks(uint256,uint256)": {
        "notice": "It allows the admin to update start and end blocks"
      }
    },
    "version": 1
  },
  "storageLayout": {
    "storage": [
      {
        "astId": 822,
        "contract": "contracts/pools/FixedAPRStakingPool.sol:FixedAPRStakingPool",
        "label": "_owner",
        "offset": 0,
        "slot": "0",
        "type": "t_address"
      },
      {
        "astId": 935,
        "contract": "contracts/pools/FixedAPRStakingPool.sol:FixedAPRStakingPool",
        "label": "_status",
        "offset": 0,
        "slot": "1",
        "type": "t_uint256"
      },
      {
        "astId": 1464,
        "contract": "contracts/pools/FixedAPRStakingPool.sol:FixedAPRStakingPool",
        "label": "POOL_FACTORY",
        "offset": 0,
        "slot": "2",
        "type": "t_address"
      },
      {
        "astId": 1466,
        "contract": "contracts/pools/FixedAPRStakingPool.sol:FixedAPRStakingPool",
        "label": "hasUserLimit",
        "offset": 20,
        "slot": "2",
        "type": "t_bool"
      },
      {
        "astId": 1468,
        "contract": "contracts/pools/FixedAPRStakingPool.sol:FixedAPRStakingPool",
        "label": "isInitialized",
        "offset": 21,
        "slot": "2",
        "type": "t_bool"
      },
      {
        "astId": 1470,
        "contract": "contracts/pools/FixedAPRStakingPool.sol:FixedAPRStakingPool",
        "label": "bonusEndBlock",
        "offset": 0,
        "slot": "3",
        "type": "t_uint256"
      },
      {
        "astId": 1472,
        "contract": "contracts/pools/FixedAPRStakingPool.sol:FixedAPRStakingPool",
        "label": "startBlock",
        "offset": 0,
        "slot": "4",
        "type": "t_uint256"
      },
      {
        "astId": 1474,
        "contract": "contracts/pools/FixedAPRStakingPool.sol:FixedAPRStakingPool",
        "label": "poolLimitPerUser",
        "offset": 0,
        "slot": "5",
        "type": "t_uint256"
      },
      {
        "astId": 1476,
        "contract": "contracts/pools/FixedAPRStakingPool.sol:FixedAPRStakingPool",
        "label": "rewardPerBlock",
        "offset": 0,
        "slot": "6",
        "type": "t_uint256"
      },
      {
        "astId": 1478,
        "contract": "contracts/pools/FixedAPRStakingPool.sol:FixedAPRStakingPool",
        "label": "PRECISION_FACTOR",
        "offset": 0,
        "slot": "7",
        "type": "t_uint256"
      },
      {
        "astId": 1480,
        "contract": "contracts/pools/FixedAPRStakingPool.sol:FixedAPRStakingPool",
        "label": "rewardToken",
        "offset": 0,
        "slot": "8",
        "type": "t_contract(IBEP20)83"
      },
      {
        "astId": 1482,
        "contract": "contracts/pools/FixedAPRStakingPool.sol:FixedAPRStakingPool",
        "label": "stakedToken",
        "offset": 0,
        "slot": "9",
        "type": "t_contract(IBEP20)83"
      },
      {
        "astId": 1484,
        "contract": "contracts/pools/FixedAPRStakingPool.sol:FixedAPRStakingPool",
        "label": "rewardFrom",
        "offset": 0,
        "slot": "10",
        "type": "t_address"
      },
      {
        "astId": 1488,
        "contract": "contracts/pools/FixedAPRStakingPool.sol:FixedAPRStakingPool",
        "label": "userInfo",
        "offset": 0,
        "slot": "11",
        "type": "t_mapping(t_address,t_struct(UserInfo)1493_storage)"
      }
    ],
    "types": {
      "t_address": {
        "encoding": "inplace",
        "label": "address",
        "numberOfBytes": "20"
      },
      "t_bool": {
        "encoding": "inplace",
        "label": "bool",
        "numberOfBytes": "1"
      },
      "t_contract(IBEP20)83": {
        "encoding": "inplace",
        "label": "contract IBEP20",
        "numberOfBytes": "20"
      },
      "t_mapping(t_address,t_struct(UserInfo)1493_storage)": {
        "encoding": "mapping",
        "key": "t_address",
        "label": "mapping(address => struct FixedAPRStakingPool.UserInfo)",
        "numberOfBytes": "32",
        "value": "t_struct(UserInfo)1493_storage"
      },
      "t_struct(UserInfo)1493_storage": {
        "encoding": "inplace",
        "label": "struct FixedAPRStakingPool.UserInfo",
        "members": [
          {
            "astId": 1490,
            "contract": "contracts/pools/FixedAPRStakingPool.sol:FixedAPRStakingPool",
            "label": "amount",
            "offset": 0,
            "slot": "0",
            "type": "t_uint256"
          },
          {
            "astId": 1492,
            "contract": "contracts/pools/FixedAPRStakingPool.sol:FixedAPRStakingPool",
            "label": "lastRewardBlock",
            "offset": 0,
            "slot": "1",
            "type": "t_uint256"
          }
        ],
        "numberOfBytes": "64"
      },
      "t_uint256": {
        "encoding": "inplace",
        "label": "uint256",
        "numberOfBytes": "32"
      }
    }
  }
}