{
  "address": "0x67E66ae13858988D6328B8Da10671D8BA6540b47",
  "abi": [
    {
      "inputs": [
        {
          "internalType": "contract IBEP20",
          "name": "_token",
          "type": "address"
        },
        {
          "internalType": "address",
          "name": "_beneficiary",
          "type": "address"
        },
        {
          "internalType": "uint256",
          "name": "_startedAt",
          "type": "uint256"
        },
        {
          "internalType": "uint256[]",
          "name": "_unlockAmounts",
          "type": "uint256[]"
        }
      ],
      "stateMutability": "nonpayable",
      "type": "constructor"
    },
    {
      "inputs": [],
      "name": "beneficiary",
      "outputs": [
        {
          "internalType": "address",
          "name": "",
          "type": "address"
        }
      ],
      "stateMutability": "view",
      "type": "function"
    },
    {
      "inputs": [
        {
          "internalType": "address",
          "name": "_beneficiary",
          "type": "address"
        }
      ],
      "name": "setBeneficiary",
      "outputs": [],
      "stateMutability": "nonpayable",
      "type": "function"
    },
    {
      "inputs": [],
      "name": "startedAt",
      "outputs": [
        {
          "internalType": "uint256",
          "name": "",
          "type": "uint256"
        }
      ],
      "stateMutability": "view",
      "type": "function"
    },
    {
      "inputs": [],
      "name": "token",
      "outputs": [
        {
          "internalType": "contract IBEP20",
          "name": "",
          "type": "address"
        }
      ],
      "stateMutability": "view",
      "type": "function"
    },
    {
      "inputs": [
        {
          "internalType": "uint256",
          "name": "",
          "type": "uint256"
        }
      ],
      "name": "unlockAmounts",
      "outputs": [
        {
          "internalType": "uint256",
          "name": "",
          "type": "uint256"
        }
      ],
      "stateMutability": "view",
      "type": "function"
    },
    {
      "inputs": [
        {
          "internalType": "uint256",
          "name": "yearsAfter",
          "type": "uint256"
        }
      ],
      "name": "withdraw",
      "outputs": [],
      "stateMutability": "nonpayable",
      "type": "function"
    }
  ],
  "transactionHash": "0xa5d1d79bb413c29e23bce69e9a17ea5d8459efe3eff8053571b6d716948d51fc",
  "args": [
    "0x4556A6f454f15C4cD57167a62bdA65A6be325D1F",
    "0x0c1afc94648180006962D9D25d0FD3213Ef552Fc",
    1609491468,
    [
      "3000000000000000000000000",
      "3000000000000000000000000",
      "4500000000000000000000000"
    ]
  ],
  "solcInputHash": "e0a5354ee0759198024d58940228e23e",
  "bytecode": "0x60c060405234801561001057600080fd5b506040516109173803806109178339818101604052608081101561003357600080fd5b81516020830151604080850151606086018051925194969395919493918201928464010000000082111561006657600080fd5b90830190602082018581111561007b57600080fd5b825186602082028301116401000000008211171561009857600080fd5b82525081516020918201928201910280838360005b838110156100c55781810151838201526020016100ad565b505050509190910160405250505050606084901b6001600160601b031916608052600080546001600160a01b0319166001600160a01b03851617905560a08290528051610119906001906020840190610123565b5050505050610183565b82805482825590600052602060002090810192821561015e579160200282015b8281111561015e578251825591602001919060010190610143565b5061016a92915061016e565b5090565b5b8082111561016a576000815560010161016f565b60805160601c60a0516107646101b36000398061021e52806103755250806102fe528061039952506107646000f3fe608060405234801561001057600080fd5b50600436106100625760003560e01c80631c31f710146100675780632e1a7d4d1461008f57806338af3eed146100ac57806369706d9d146100d0578063f21f537d146100ff578063fc0c546a14610107575b600080fd5b61008d6004803603602081101561007d57600080fd5b50356001600160a01b031661010f565b005b61008d600480360360208110156100a557600080fd5b50356101d5565b6100b4610346565b604080516001600160a01b039092168252519081900360200190f35b6100ed600480360360208110156100e657600080fd5b5035610355565b60408051918252519081900360200190f35b6100ed610373565b6100b4610397565b6001600160a01b0381166101545760405162461bcd60e51b815260040180806020018281038252602581526020018061070a6025913960400191505060405180910390fd5b6000546001600160a01b031633146101b3576040805162461bcd60e51b815260206004820152601b60248201527f546f6b656e54696d656c6f636b3a20756e617574686f72697a65640000000000604482015290519081900360640190fd5b600080546001600160a01b0319166001600160a01b0392909216919091179055565b60015481106102155760405162461bcd60e51b81526004018080602001828103825260218152602001806106bf6021913960400191505060405180910390fd5b806301e13380027f00000000000000000000000000000000000000000000000000000000000000000142101561027c5760405162461bcd60e51b815260040180806020018281038252602981526020018061072f6029913960400191505060405180910390fd5b60006001828154811061028b57fe5b90600052602060002001549050600081116102ed576040805162461bcd60e51b815260206004820152601e60248201527f596561726c79546f6b656e54696d656c6f636b3a2077697468647261776e0000604482015290519081900360640190fd5b600054610327906001600160a01b037f000000000000000000000000000000000000000000000000000000000000000081169116836103bb565b60006001838154811061033657fe5b6000918252602090912001555050565b6000546001600160a01b031681565b6001818154811061036257fe5b600091825260209091200154905081565b7f000000000000000000000000000000000000000000000000000000000000000081565b7f000000000000000000000000000000000000000000000000000000000000000081565b604080516001600160a01b038416602482015260448082018490528251808303909101815260649091019091526020810180516001600160e01b031663a9059cbb60e01b17905261040d908490610412565b505050565b6060610467826040518060400160405280602081526020017f5361666542455032303a206c6f772d6c6576656c2063616c6c206661696c6564815250856001600160a01b03166104c39092919063ffffffff16565b80519091501561040d5780806020019051602081101561048657600080fd5b505161040d5760405162461bcd60e51b815260040180806020018281038252602a8152602001806106e0602a913960400191505060405180910390fd5b60606104d284846000856104da565b949350505050565b60606104e585610685565b610536576040805162461bcd60e51b815260206004820152601d60248201527f416464726573733a2063616c6c20746f206e6f6e2d636f6e7472616374000000604482015290519081900360640190fd5b60006060866001600160a01b031685876040518082805190602001908083835b602083106105755780518252601f199092019160209182019101610556565b6001836020036101000a03801982511681845116808217855250505050505090500191505060006040518083038185875af1925050503d80600081146105d7576040519150601f19603f3d011682016040523d82523d6000602084013e6105dc565b606091505b509150915081156105f05791506104d29050565b8051156106005780518082602001fd5b8360405162461bcd60e51b81526004018080602001828103825283818151815260200191508051906020019080838360005b8381101561064a578181015183820152602001610632565b50505050905090810190601f1680156106775780820380516001836020036101000a031916815260200191505b509250505060405180910390fd5b6000813f7fc5d2460186f7233c927e7db2dcc703c0e500b653ca82273b7bfad8045d85a4708181148015906104d257505015159291505056fe596561726c79546f6b656e54696d656c6f636b3a20696e76616c696420796561725361666542455032303a204245503230206f7065726174696f6e20646964206e6f742073756363656564546f6b656e54696d656c6f636b3a2063616e6e6f74206265207a65726f2061646472657373596561726c79546f6b656e54696d656c6f636b3a206e6f20746f6b656e7320746f2072656c65617365a164736f6c634300060c000a",
  "devdoc": {
    "details": "A token holder contract that will allow a beneficiary to extract the tokens after a given release time. Useful for simple vesting schedules like \"advisors get 10 tokens at year 1 20 tokens at year 2\".",
    "kind": "dev",
    "methods": {},
    "version": 1
  },
  "userdoc": {
    "kind": "user",
    "methods": {
      "withdraw(uint256)": {
        "notice": "Transfers tokens held by timelock to beneficiary."
      }
    },
    "version": 1
  },
  "storageLayout": {
    "storage": [
      {
        "astId": 2144,
        "contract": "contracts/token/YearlyTokenTimelock.sol:YearlyTokenTimelock",
        "label": "beneficiary",
        "offset": 0,
        "slot": "0",
        "type": "t_address"
      },
      {
        "astId": 2149,
        "contract": "contracts/token/YearlyTokenTimelock.sol:YearlyTokenTimelock",
        "label": "unlockAmounts",
        "offset": 0,
        "slot": "1",
        "type": "t_array(t_uint256)dyn_storage"
      }
    ],
    "types": {
      "t_address": {
        "encoding": "inplace",
        "label": "address",
        "numberOfBytes": "20"
      },
      "t_array(t_uint256)dyn_storage": {
        "base": "t_uint256",
        "encoding": "dynamic_array",
        "label": "uint256[]",
        "numberOfBytes": "32"
      },
      "t_uint256": {
        "encoding": "inplace",
        "label": "uint256",
        "numberOfBytes": "32"
      }
    }
  }
}