{
  "address": "0xd9fF67CB4b165eDCEcF9b69235adb7577b657108",
  "abi": [
    {
      "inputs": [
        {
          "internalType": "contract IBEP20",
          "name": "_token",
          "type": "address"
        },
        {
          "internalType": "address",
          "name": "_beneficiary",
          "type": "address"
        }
      ],
      "stateMutability": "nonpayable",
      "type": "constructor"
    },
    {
      "inputs": [],
      "name": "beneficiary",
      "outputs": [
        {
          "internalType": "address",
          "name": "",
          "type": "address"
        }
      ],
      "stateMutability": "view",
      "type": "function"
    },
    {
      "inputs": [
        {
          "internalType": "address",
          "name": "_beneficiary",
          "type": "address"
        }
      ],
      "name": "setBeneficiary",
      "outputs": [],
      "stateMutability": "nonpayable",
      "type": "function"
    },
    {
      "inputs": [],
      "name": "token",
      "outputs": [
        {
          "internalType": "contract IBEP20",
          "name": "",
          "type": "address"
        }
      ],
      "stateMutability": "view",
      "type": "function"
    },
    {
      "inputs": [],
      "name": "totalWithdrawn",
      "outputs": [
        {
          "internalType": "uint256",
          "name": "",
          "type": "uint256"
        }
      ],
      "stateMutability": "view",
      "type": "function"
    },
    {
      "inputs": [
        {
          "internalType": "uint256",
          "name": "_timestamp",
          "type": "uint256"
        }
      ],
      "name": "unlockedAllocation2021At",
      "outputs": [
        {
          "internalType": "uint256",
          "name": "_unlockedAmount",
          "type": "uint256"
        }
      ],
      "stateMutability": "pure",
      "type": "function"
    },
    {
      "inputs": [
        {
          "internalType": "uint256",
          "name": "_timestamp",
          "type": "uint256"
        }
      ],
      "name": "unlockedAllocation2022At",
      "outputs": [
        {
          "internalType": "uint256",
          "name": "_unlockedAmount",
          "type": "uint256"
        }
      ],
      "stateMutability": "pure",
      "type": "function"
    },
    {
      "inputs": [
        {
          "internalType": "uint256",
          "name": "_timestamp",
          "type": "uint256"
        }
      ],
      "name": "unlockedAllocation2023At",
      "outputs": [
        {
          "internalType": "uint256",
          "name": "_unlockedAmount",
          "type": "uint256"
        }
      ],
      "stateMutability": "pure",
      "type": "function"
    },
    {
      "inputs": [
        {
          "internalType": "uint256",
          "name": "_timestamp",
          "type": "uint256"
        }
      ],
      "name": "unlockedAllocation2024At",
      "outputs": [
        {
          "internalType": "uint256",
          "name": "_unlockedAmount",
          "type": "uint256"
        }
      ],
      "stateMutability": "pure",
      "type": "function"
    },
    {
      "inputs": [],
      "name": "unlockedAmount",
      "outputs": [
        {
          "internalType": "uint256",
          "name": "",
          "type": "uint256"
        }
      ],
      "stateMutability": "view",
      "type": "function"
    },
    {
      "inputs": [
        {
          "internalType": "uint256",
          "name": "_timestamp",
          "type": "uint256"
        }
      ],
      "name": "unlockedAmountAt",
      "outputs": [
        {
          "internalType": "uint256",
          "name": "",
          "type": "uint256"
        }
      ],
      "stateMutability": "pure",
      "type": "function"
    },
    {
      "inputs": [],
      "name": "withdraw",
      "outputs": [],
      "stateMutability": "nonpayable",
      "type": "function"
    }
  ],
  "transactionHash": "0x9d4fe1303fa4aa9f660428e8f12834ce283e53dfda9c0f6a1ce6d057eb8192e9",
  "args": [
    "0x45eA4811a42529e74898219694c6b58C6b1Fe918",
    "0x2Da8bE02B40394FA96007752A59772B378Db447f"
  ],
  "solcInputHash": "74a76bbfe6e923768d5399d709f9d16d",
  "bytecode": "0x60a060405234801561001057600080fd5b50604051610add380380610add8339818101604052604081101561003357600080fd5b508051602090910151606082901b6001600160601b031916608052600080546001600160a01b0319166001600160a01b03928316178155911690610a5490610089903980610326528061040b5250610a546000f3fe608060405234801561001057600080fd5b50600436106100a95760003560e01c80634dfefebc116100715780634dfefebc1461013957806365e22a0d146101415780636aee60361461015e57806379fb42b61461017b578063b06e77b814610198578063fc0c546a146101b5576100a9565b80631c31f710146100ae5780632941bd8d146100d657806338af3eed146101055780633ccfd60b146101295780634b31971314610131575b600080fd5b6100d4600480360360208110156100c457600080fd5b50356001600160a01b03166101bd565b005b6100f3600480360360208110156100ec57600080fd5b503561026d565b60408051918252519081900360200190f35b61010d61029f565b604080516001600160a01b039092168252519081900360200190f35b6100d46102ae565b6100f3610355565b6100f361035b565b6100f36004803603602081101561015757600080fd5b503561036b565b6100f36004803603602081101561017457600080fd5b503561038e565b6100f36004803603602081101561019157600080fd5b50356103b1565b6100f3600480360360208110156101ae57600080fd5b50356103e6565b61010d610409565b6001600160a01b0381166102025760405162461bcd60e51b815260040180806020018281038252602c8152602001806109d1602c913960400191505060405180910390fd5b6000546001600160a01b0316331461024b5760405162461bcd60e51b81526004018080602001828103825260228152602001806109856022913960400191505060405180910390fd5b600080546001600160a01b0319166001600160a01b0392909216919091179055565b60006102998261027f6216e36061042d565b6361cf3710610290620249f061042d565b62278d0061043a565b92915050565b6000546001600160a01b031681565b60006102b9426103b1565b905060015481116102fb5760405162461bcd60e51b815260040180806020018281038252602a8152602001806109fd602a913960400191505060405180910390fd5b60006103126001548361048590919063ffffffff16565b60005490915061034f906001600160a01b037f000000000000000000000000000000000000000000000000000000000000000081169116836104ce565b50600155565b60015481565b6000610366426103b1565b905090565b60006102998261037d620f424061042d565b6363b06a90610290620186a061042d565b6000610299826103a0622625a061042d565b63610581906102906203d09061042d565b60006102996103bf836103e6565b6103e06103cb8561036b565b6103e06103d78761026d565b6103e08861038e565b90610525565b6000610299826103f8620f424061042d565b6365919e10610290620186a061042d565b7f000000000000000000000000000000000000000000000000000000000000000081565b670de0b6b3a76400000290565b60008386101561044c5750600061047c565b61046f8361046960016103e0866104638c8b610485565b9061057f565b906105c1565b90508481111561047c5750835b95945050505050565b60006104c783836040518060400160405280601e81526020017f536166654d6174683a207375627472616374696f6e206f766572666c6f77000081525061061a565b9392505050565b604080516001600160a01b038416602482015260448082018490528251808303909101815260649091019091526020810180516001600160e01b031663a9059cbb60e01b1790526105209084906106b1565b505050565b6000828201838110156104c7576040805162461bcd60e51b815260206004820152601b60248201527f536166654d6174683a206164646974696f6e206f766572666c6f770000000000604482015290519081900360640190fd5b60006104c783836040518060400160405280601a81526020017f536166654d6174683a206469766973696f6e206279207a65726f000000000000815250610762565b6000826105d057506000610299565b828202828482816105dd57fe5b04146104c75760405162461bcd60e51b8152600401808060200182810382526021815260200180610a276021913960400191505060405180910390fd5b600081848411156106a95760405162461bcd60e51b81526004018080602001828103825283818151815260200191508051906020019080838360005b8381101561066e578181015183820152602001610656565b50505050905090810190601f16801561069b5780820380516001836020036101000a031916815260200191505b509250505060405180910390fd5b505050900390565b6060610706826040518060400160405280602081526020017f5361666542455032303a206c6f772d6c6576656c2063616c6c206661696c6564815250856001600160a01b03166107c79092919063ffffffff16565b8051909150156105205780806020019051602081101561072557600080fd5b50516105205760405162461bcd60e51b815260040180806020018281038252602a8152602001806109a7602a913960400191505060405180910390fd5b600081836107b15760405162461bcd60e51b815260206004820181815283516024840152835190928392604490910191908501908083836000831561066e578181015183820152602001610656565b5060008385816107bd57fe5b0495945050505050565b60606107d684846000856107de565b949350505050565b60606107e98561094b565b61083a576040805162461bcd60e51b815260206004820152601d60248201527f416464726573733a2063616c6c20746f206e6f6e2d636f6e7472616374000000604482015290519081900360640190fd5b60006060866001600160a01b031685876040518082805190602001908083835b602083106108795780518252601f19909201916020918201910161085a565b6001836020036101000a03801982511681845116808217855250505050505090500191505060006040518083038185875af1925050503d80600081146108db576040519150601f19603f3d011682016040523d82523d6000602084013e6108e0565b606091505b509150915081156108f45791506107d69050565b8051156109045780518082602001fd5b60405162461bcd60e51b815260206004820181815286516024840152865187939192839260440191908501908083836000831561066e578181015183820152602001610656565b6000813f7fc5d2460186f7233c927e7db2dcc703c0e500b653ca82273b7bfad8045d85a4708181148015906107d657505015159291505056fe50726976617465546f6b656e54696d656c6f636b3a20756e617574686f72697a65645361666542455032303a204245503230206f7065726174696f6e20646964206e6f74207375636365656450726976617465546f6b656e54696d656c6f636b3a2063616e6e6f74206265207a65726f206164647265737350726976617465546f6b656e54696d656c6f636b3a206e6f20746f6b656e7320746f2072656c65617365536166654d6174683a206d756c7469706c69636174696f6e206f766572666c6f77a164736f6c634300060c000a",
  "devdoc": {
    "details": "A token holder contract that will allow a beneficiary to extract the tokens after a given release time.",
    "kind": "dev",
    "methods": {},
    "version": 1
  },
  "userdoc": {
    "kind": "user",
    "methods": {
      "withdraw()": {
        "notice": "Transfers tokens held by timelock to beneficiary."
      }
    },
    "version": 1
  },
  "storageLayout": {
    "storage": [
      {
        "astId": 1962,
        "contract": "contracts/token/PrivateTokenTimelock.sol:PrivateTokenTimelock",
        "label": "beneficiary",
        "offset": 0,
        "slot": "0",
        "type": "t_address"
      },
      {
        "astId": 1964,
        "contract": "contracts/token/PrivateTokenTimelock.sol:PrivateTokenTimelock",
        "label": "totalWithdrawn",
        "offset": 0,
        "slot": "1",
        "type": "t_uint256"
      }
    ],
    "types": {
      "t_address": {
        "encoding": "inplace",
        "label": "address",
        "numberOfBytes": "20"
      },
      "t_uint256": {
        "encoding": "inplace",
        "label": "uint256",
        "numberOfBytes": "32"
      }
    }
  }
}